:10000000D2C00000FEC00000FCC00000FAC000002A
:10001000F8C00000F6C00000F4C00000F2C000000C
:10002000F0C00000EEC00000ECC00000EAC000001C
:10003000E8C00000E6C00000E4C00000E2C000002C
:10004000E0C00000DEC00000DCC00000DAC000003C
:10005000D8C00000D6C00000D4C00000CAC2000052
:10006000D0C0000090C2000065C20000CAC00000FD
:10007000C8C00000C6C00000C4C00000C2C000006C
:10008000C0C00000BEC00000BCC00000BAC000007C
:10009000B8C00000B6C00000B4C00000B2C000008C
:1000A000B0C00000AEC00000ACC00000AAC000009C
:1000B000A8C00000A6C00000A4C00000A2C00000AC
:1000C000A0C000009EC000009CC000009AC00000BC
:1000D00098C0000096C0000094C0000092C00000CC
:1000E00090C0000000002200250028002B002E00F8
:1000F0003100340002010000050108010B0100007D
:100100002100240027002A002D00300033000101C7
:100110000000040107010A01050505050705080897
:100120000808020202020A0A080804040404010181
:100130000101010101010303030303030303040796
:1001400007070C0C0C0C0C0C0C0C0202020206062D
:100150000606060606060B0B0B0B0B0B0B0B010220
:1001600010202008081020401020408002010201C9
:100170000804020101020408102040808040201081
:1001800008040201800402018040201008040201DA
:100190000804020101020408102040800102040842
:1001A00010204080FF0411241FBECFEFD1E2DEBF3C
:1001B000CDBF00E00CBF12E0A0E0B2E0ECEEFEE04C
:1001C00000E00BBF02C007900D92AA32B107D9F729
:1001D00022E0AAE2B2E001C01D92A43DB207E1F71D
:1001E00010E0C3EDD0E000E005C021970109802FA9
:1001F000FE0154D4C23DD10780E00807B1F743D2D5
:1002000073C6FECECF92DF92EF92FF920F931F93B1
:10021000CF93DF936C017A018B01C0E0D0E0CE1563
:10022000DF0589F0D8016D918D01D601ED91FC912A
:100230000190F081E02DC6011995892B11F47E0102
:1002400002C02196ECCFC701DF91CF911F910F9192
:10025000FF90EF90DF90CF900895FC01918D828DFB
:10026000981761F0828DDF01A80FB11D5D968C910A
:10027000928D9F5F9F73928F90E008958FEF9FEF15
:100280000895FC01918D828D981731F0828DE80FD1
:10029000F11D858D90E008958FEF9FEF0895FC018B
:1002A000918D228D892F90E0805C9F4F821B910958
:1002B0008F739927089587E392E0F1DF21E0892B7E
:1002C00009F420E0822F0895FC01848DDF01A80F3E
:1002D000B11DA35ABF4F2C91848D90E001968F736E
:1002E0009927848FA689B7892C93A089B1898C918D
:1002F00080648C93938D848D981306C00288F38953
:10030000E02D80818F7D80830895EF92FF920F937F
:100310001F93CF93DF93EC0181E0888F9B8D8C8DB1
:10032000981305C0E889F989808185FD23C0F62EE0
:100330000B8D10E00F5F1F4F0F731127E02E8C8D78
:10034000E8120BC00FB607FCFACFE889F989808163
:1003500085FFF5CFCE01B8DFF2CF8B8DFE01E80F20
:10036000F11DE35AFF4FF0820B8FEA89FB898081F0
:10037000806207C0EE89FF896083E889F9898081FE
:100380008064808381E090E0DF91CF911F910F9195
:10039000FF90EF900895CF93DF93EC01888D882331
:1003A000C1F0EA89FB89808185FD05C0A889B989EA
:1003B0008C9186FD0EC00FB607FCF5CF808185FFBE
:1003C000F2CFA889B9898C9185FFEDCFCE017CDF72
:1003D000E8CFDF91CF91089580E090E0892B19F06C
:1003E0006ADF811125C080E090E0892B41F080E038
:1003F00090E0892B21F00E94000081111CC080E058
:1004000090E0892B41F080E090E0892B21F00E9460
:100410000000811113C080E090E0892BA1F080E002
:1004200090E0892B81F00E94000081110AC008959C
:100430000E940000D8CF0E940000E1CF0E9400007F
:10044000EACF0C94000008953FB7F89480912F02F2
:1004500090913002A0913102B091320226B5A89B52
:1004600005C02F3F19F00196A11DB11D3FBFBA2F46
:10047000A92F982F8827820F911DA11DB11DBC01A6
:10048000CD0142E0660F771F881F991F4A95D1F76B
:100490000895009761F0FC0101900020E9F7319781
:1004A000AF01481B590BBC0187E392E0ABCE80E063
:1004B00090E008958F929F92AF92BF920F931F93F7
:1004C000CF93DF93CDB7DEB7A1970FB6F894DEBF19
:1004D0000FBECDBF19A2423008F44AE08E010F5D75
:1004E0001F4F842E912CA12CB12CA5019401B4D2C4
:1004F000E62FB901CA0101501109EA3014F4E05D98
:1005000001C0E95CD801EC93232B242B252B69F740
:10051000C801BFDFA1960FB6F894DEBF0FBECDBFF6
:10052000DF91CF911F910F91BF90AF909F908F90CF
:100530000895D6D41F920F920FB60F9211240BB6C6
:100540000F922F933F934F935F936F937F938F936C
:100550009F93AF93BF93EF93FF9387E392E0B4DE53
:10056000FF91EF91BF91AF919F918F917F916F918B
:100570005F914F913F912F910F900BBE0F900FBE47
:100580000F901F9018951F920F920FB60F92112483
:100590000BB60F922F938F939F93EF93FF93E0915E
:1005A0004702F09148028081E0914D02F0914E02A5
:1005B00082FD12C09081809150028F5F8F732091D5
:1005C0005102821751F0E0915002F0E0E95CFD4FDA
:1005D000958F8093500201C08081FF91EF919F9190
:1005E0008F912F910F900BBE0F900FBE0F901F9009
:1005F00018951F920F920FB60F9211242F933F93CD
:100600008F939F93AF93BF9380912B0290912C0275
:10061000A0912D02B0912E0230912A0223E0230FE7
:100620002D3720F40196A11DB11D05C026E8230F2A
:100630000296A11DB11D20932A0280932B02909354
:100640002C02A0932D02B0932E0280912F02909144
:100650003002A0913102B09132020196A11DB11D6C
:1006600080932F0290933002A0933102B093320214
:10067000BF91AF919F918F913F912F910F900FBE9E
:100680000F901F901895789484B5826084BD84B5CE
:10069000816084BD85B5826085BD85B5816085BD7D
:1006A00080916E00816080936E0010928100809135
:1006B00081008260809381008091810081608093BD
:1006C0008100809180008160809380008091B100E2
:1006D00084608093B1008091B00081608093B0000D
:1006E000809191008260809391008091910081605F
:1006F0008093910080919000816080939000809120
:10070000A10082608093A1008091A100816080930C
:10071000A1008091A00081608093A00080912101C0
:100720008260809321018091210181608093210169
:100730008091200181608093200180917A00846003
:1007400080937A0080917A00826080937A00809111
:100750007A00816080937A0080917A00806880932B
:100760007A001092C100E0914702F091480292E0B5
:100770009083E0914302F09144021082E09145029F
:10078000F09146028FEC808310924F02E0914B0271
:10079000F0914C0286E08083E0914902F0914A0298
:1007A000808180618083E0914902F0914A028081DA
:1007B00088608083E0914902F0914A0280818068DC
:1007C0008083E0914902F0914A0280818F7D80838D
:1007D00090930002EBE9F1E02491E5E5F1E08491EA
:1007E0008823C1F090E0880F991FFC01E250FF4F71
:1007F000C591D491FC01EC51FF4FA591B4919FB7E5
:10080000F8948881E22FE0958E2388838C91E823E9
:10081000EC939FBF80917B00877F80937B008091CA
:10082000000220E4829FC0011124876080937C0035
:1008300080917A00806480937A0080917A0086FDAE
:10084000FCCF609178008091790070E0782B072EC2
:10085000000C880B990B29D26093330270933402F9
:10086000809335029093360281E192E012DE23EC10
:1008700035EF44E151E4609133027091340280918C
:100880003502909136027BD16B017C014B015C01FA
:100890009B01AC0121D3882319F088E192E018C0B4
:1008A00026013701E89477F82FEF3FEF4FE75FE736
:1008B000C301B20111D381110DC02FEF3FEF4FE7FC
:1008C0005FE7C301B20157D1181624F48CE192E01E
:1008D000E0DD6CC02FEF3FEF4FE75FE4C701B601EB
:1008E00094D218161CF480E292E0F2CF2FEF3FEF83
:1008F0004FE75FECC701B6013ED187FDF4CF20E0A2
:1009000030E0A901C701B60136D187FF11C0E091DF
:100910003702F09138020190F081E02D6DE287E31B
:1009200092E0199546015701B7FAB094B7F8B09420
:100930002AE037ED43EA5BE3C501B401B8D04B01CF
:100940005C0185D16B017C01AED19B01AC01C5017D
:10095000B401ACD04B015C014AE0C701B601AADD8D
:1009600084E292E096DD20E030E040E251E4C5010F
:10097000B4014FD24B015C016AD16B01E12CF12C27
:100980004AE0C701B60196DDC701B6018CD19B01D3
:10099000AC01C501B4018AD020E030E040E251E46E
:1009A00038D255D180E090E04AE084DD86E292E0E2
:1009B00070DD4ADD4B015C0184E6C82ED12CE12CB0
:1009C000F12C42DDDC01CB0188199909AA09BB0988
:1009D000883E9340A105B10558F081E0C81AD108BE
:1009E000E108F10828EE820E23E0921EA11CB11C42
:1009F000C114D104E104F10421F7EEDC0BCFE7E3ED
:100A0000F2E01382128288EE93E0A0E0B0E08483EB
:100A10009583A683B78385E092E09183808385ECFC
:100A200090E09587848784EC90E09787868780ECB8
:100A300090E0918B808B81EC90E0938B828B82ECA9
:100A400090E0958B848B86EC90E0978B868B118E53
:100A5000128E138E148E0895A1E21A2EAA1BBB1BB0
:100A6000FD010DC0AA1FBB1FEE1FFF1FA217B3077A
:100A7000E407F50720F0A21BB30BE40BF50B661F90
:100A8000771F881F991F1A9469F760957095809554
:100A900090959B01AC01BD01CF010895EE0FFF1FA2
:100AA000881F8BBF0790F691E02D19945058BB27F3
:100AB000AA270ED070C161D130F066D120F031F498
:100AC0009F3F11F41EF456C10EF4E095E7FB4CC1B4
:100AD000E92F72D180F3BA1762077307840795076D
:100AE00018F071F49EF58AC10EF4E0950B2EBA2F22
:100AF000A02D0B01B90190010C01CA01A001112424
:100B0000FF27591B99F0593F50F4503E68F11A16CF
:100B1000F040A22F232F342F4427585FF3CF469560
:100B200037952795A795F0405395C9F77EF41F1682
:100B3000BA0B620B730B840BBAF09150A1F0FF0F4C
:100B4000BB1F661F771F881FC2F70EC0BA0F621F38
:100B5000731F841F48F4879577956795B795F79528
:100B60009E3F08F0B3CF9395880F08F09927EE0FBA
:100B7000979587950895D4D008F481E008950CD016
:100B80000AC102D140F0F9D030F021F45F3F19F0F2
:100B9000EBC0511134C1EEC00FD198F39923C9F3C2
:100BA0005523B1F3951B550BBB27AA276217730773
:100BB000840738F09F5F5F4F220F331F441FAA1F27
:100BC000A9F333D00E2E3AF0E0E830D091505040E7
:100BD000E695001CCAF729D0FE2F27D0660F771F95
:100BE000881FBB1F261737074807AB07B0E809F077
:100BF000BB0B802DBF01FF2793585F4F2AF09E3F0C
:100C0000510568F0B1C0FBC05F3FECF3983EDCF3E8
:100C1000869577956795B795F7959F5FC9F7880F84
:100C2000911D9695879597F90895E1E0660F771FD6
:100C3000881FBB1F621773078407BA0720F0621B67
:100C4000730B840BBA0BEE1F88F7E0950895BCD0A8
:100C500088F09F5790F0B92F9927B751A0F0D1F0A5
:100C6000660F771F881F991F1AF0BA95C9F712C02F
:100C7000B13081F0C3D0B1E00895C0C0672F782FA4
:100C80008827B85F39F0B93FCCF38695779567959B
:100C9000B395D9F73EF490958095709561957F4F07
:100CA0008F4F9F4F0895E89409C097FB3EF49095AD
:100CB0008095709561957F4F8F4F9F4F9923A9F035
:100CC000F92F96E9BB279395F695879577956795C4
:100CD000B795F111F8CFFAF4BB0F11F460FF1BC008
:100CE0006F5F7F4F8F4F9F4F16C0882311F096E99B
:100CF00011C0772321F09EE8872F762F05C0662349
:100D000071F096E8862F70E060E02AF09A95660F01
:100D1000771F881FDAF7880F9695879597F90895BA
:100D2000990F0008550FAA0BE0E8FEEF16161706FC
:100D3000E807F907C0F012161306E407F50798F064
:100D4000621B730B840B950B39F40A2661F0232B7D
:100D5000242B252B21F408950A2609F4A140A695F9
:100D60008FEF811D811D089597F99F6780E870E0DE
:100D700060E008959FEF80EC089500240A94161611
:100D8000170618060906089500240A941216130679
:100D9000140605060895092E0394000C11F4882307
:100DA00052F0BB0F40F4BF2B11F460FF04C06F5F23
:100DB0007F4F8F4F9F4F089557FD9058440F551FF9
:100DC00059F05F3F71F04795880F97FB991F61F0CD
:100DD0009F3F79F087950895121613061406551F44
:100DE000F2CF4695F1DF08C0161617061806991FB0
:100DF000F1CF86957105610508940895E894BB27A5
:100E000066277727CB0197F908958ADF08F48FEFDB
:100E100008950BD0C0CFB1DF28F0B6DF18F09523CE
:100E200009F0A2CFA7CF1124EACFC6DFA0F3959F88
:100E3000D1F3950F50E0551F629FF001729FBB27C1
:100E4000F00DB11D639FAA27F00DB11DAA1F649F6D
:100E50006627B00DA11D661F829F2227B00DA11D20
:100E6000621F739FB00DA11D621F839FA00D611DA6
:100E7000221F749F3327A00D611D231F849F600DC7
:100E8000211D822F762F6A2F11249F5750408AF000
:100E9000E1F088234AF0EE0FFF1FBB1F661F771F8C
:100EA000881F91505040A9F79E3F510570F05CCFCC
:100EB000A6CF5F3FECF3983EDCF386957795679578
:100EC000B795F795E7959F5FC1F7FE2B880F911DAA
:100ED0009695879597F9089523DF880B990B0895C8
:0C0EE00081E090E0F89400C0F894FFCF8F
:100EEC000100000000850102014F012D014101CBE1
:100EFC000154656D703A20006E616E00696E66007B
:0A0F0C006F7666002E000D0A00004B
:00000001FF
