:1000000014C1000040C100003EC100003CC100001E
:100010003AC1000038C1000036C1000034C1000000
:1000200032C1000030C100002EC100002CC1000010
:100030002AC1000028C1000026C1000024C1000020
:1000400022C1000020C100001EC100001CC1000030
:100050001AC1000018C1000016C10000BEC3000094
:1000600012C1000084C3000059C300000CC100008D
:100070000AC1000008C1000006C1000004C1000060
:1000800002C1000000C10000FEC00000FCC0000072
:10009000FAC00000F8C00000F6C00000F4C0000084
:1000A000F2C00000F0C00000EEC00000ECC0000094
:1000B000EAC00000E8C00000E6C00000E4C00000A4
:1000C000E2C00000E0C00000DEC00000DCC00000B4
:1000D000DAC00000D8C00000D6C00000D4C00000C4
:1000E000D2C000009402970286028A028E02CE02DB
:1000F0009B029F02A502A902AD02B302B702BB0296
:10010000CE02C102C502C90200000A0B02090C0D91
:100110000E080703040100000000000000000000BA
:1001200000000000000000000000000000000000CF
:10013000000000001211100000000000000000008C
:1001400000000000000000000000000000000000AF
:100150002200250028002B002E003100340002016F
:100160000000050108010B01000021002400270008
:100170002A002D00300033000101000004010701B6
:100180000A01000020002300260029002C002F0077
:100190003200000100000301060109010505050503
:1001A000070508080808020202020A0A08080404EF
:1001B000040401010101010101010303030303031D
:1001C0000303040707070C0C0C0C0C0C0C0C0202AC
:1001D000020206060606060606060B0B0B0B0B0BA9
:1001E0000B0B010210202008081020401020408036
:1001F00002010201080402010102040810204080EB
:100200008040201008040201800402018040201078
:1002100008040201080402010102040810204080C1
:100220000102040810204080050611241FBECFEFF4
:10023000D1E2DEBFCDBF00E00CBF12E0A0E0B2E033
:10024000ECEFFCE000E00BBF02C007900D92AA317A
:10025000B107D9F722E0AAE1B2E001C01D92AC3C9F
:10026000B207E1F711E0C5E1D1E000E005C0219758
:100270000109802FFE0134D5C431D10780E0080781
:10028000B1F73AD339C5BCCECF92DF92EF92FF924D
:100290000F931F93CF93DF936C017A018B01C0E022
:1002A000D0E0CE15DF0589F0D8016D918D01D60122
:1002B000ED91FC910190F081E02DC6011995892BFB
:1002C00011F47E0102C02196ECCFC701DF91CF91DE
:1002D0001F910F91FF90EF90DF90CF900895FC0158
:1002E000918D828D981761F0828DDF01A80FB11D6D
:1002F0005D968C91928D9F5F9F73928F90E0089591
:100300008FEF9FEF0895FC01918D828D981731F04A
:10031000828DE80FF11D858D90E008958FEF9FEF9E
:100320000895FC01918D228D892F90E0805C9F4F74
:10033000821B91098F73992708958FE292E0F1DF74
:1003400021E0892B09F420E0822F0895FC01848D9F
:10035000DF01A80FB11DA35ABF4F2C91848D90E0EF
:1003600001968F739927848FA689B7892C93A089CA
:10037000B1898C9180648C93938D848D981306C081
:100380000288F389E02D80818F7D80830895EF922C
:10039000FF920F931F93CF93DF93EC0181E0888F3F
:1003A0009B8D8C8D981305C0E889F989808185FD26
:1003B00023C0F62E0B8D10E00F5F1F4F0F73112718
:1003C000E02E8C8DE8120BC00FB607FCFACFE8893F
:1003D000F989808185FFF5CFCE01B8DFF2CF8B8D13
:1003E000FE01E80FF11DE35AFF4FF0820B8FEA89FF
:1003F000FB898081806207C0EE89FF896083E8897C
:10040000F98980818064808381E090E0DF91CF91E1
:100410001F910F91FF90EF900895CF93DF93EC0120
:10042000888D8823C1F0EA89FB89808185FD05C01C
:10043000A889B9898C9186FD0EC00FB607FCF5CF4F
:10044000808185FFF2CFA889B9898C9185FFEDCF96
:10045000CE017CDFE8CFDF91CF91089580E090E07E
:10046000892B19F06ADF811125C080E090E0892B8B
:1004700041F080E090E0892B21F00E940000811182
:100480001CC080E090E0892B41F080E090E0892B57
:1004900021F00E940000811113C080E090E0892BC0
:1004A000A1F080E090E0892B81F00E940000811192
:1004B0000AC008950E940000D8CF0E940000E1CF3A
:1004C0000E940000EACF0C9400000895362F90E0BF
:1004D000FC01E85FFE4F4491FC01EE51FE4F249178
:1004E000FC01E456FE4F9491992309F46AC0442319
:1004F00009F454C050E0FA013197E231F10508F0F7
:100500004DC08827EE58FF4F8F4FEAC3809180007F
:100510008F7707C0809180008F7D03C0809180001D
:10052000877F809380003AC084B58F7702C084B5FE
:100530008F7D84BD33C08091B0008F7703C08091E0
:10054000B0008F7D8093B00029C0809190008F779C
:1005500007C0809190008F7D03C080919000877FBD
:10056000809390001BC08091A0008F7707C080917E
:10057000A0008F7D03C08091A000877F8093A000A2
:100580000DC0809120018F7707C0809120018F7D61
:1005900003C080912001877F80932001E92FF0E044
:1005A000EE0FFF1FE25BFE4FA591B4918FB7F89459
:1005B000EC91311103C020952E2301C02E2B2C93DA
:1005C0008FBF08953FB7F89480911F029091200249
:1005D000A0912102B091220226B5A89B05C02F3F11
:1005E00019F00196A11DB11D3FBFBA2FA92F982F59
:1005F0008827820F911DA11DB11DBC01CD0142E0D4
:10060000660F771F881F991F4A95D1F708950097A5
:1006100061F0FC0101900020E9F73197AF01481B20
:10062000590BBC018FE292E02FCE80E090E008955C
:100630008F929F92AF92BF92CF92DF92EF92FF92F2
:100640000F931F93CF93DF93CDB7DEB7A1970FB66C
:10065000F894DEBF0FBECDBF6B017C0197FF2FC0AA
:10066000E0912F02F09130020190F081E02D6DE2D7
:100670008FE292E019958C0122273327A9012C19CA
:100680003D094E095F0919A2CE0181967C019AE0CD
:10069000892E912CA12CB12CCA01B901A50194017C
:1006A000E1D2605DF70162937F01211531054105BB
:1006B000510591F7CF01ABDF800F911F1BC09B014C
:1006C000AC0119A28E010F5D1F4F8AE0C82ED12CFC
:1006D000E12CF12CCA01B901A7019601C3D2605DDA
:1006E000F80162938F01211531054105510591F7FC
:1006F000CF018DDFA1960FB6F894DEBF0FBECDBF40
:10070000DF91CF911F910F91FF90EF90DF90CF90ED
:10071000BF90AF909F908F900895EAD21F920F9252
:100720000FB60F9211240BB60F922F933F934F9356
:100730005F936F937F938F939F93AF93BF93EF9349
:10074000FF938FE292E002DEFF91EF91BF91AF91B4
:100750009F918F917F916F915F914F913F912F91D9
:100760000F900BBE0F900FBE0F901F9018951F9209
:100770000F920FB60F9211240BB60F922F938F93F7
:100780009F93EF93FF93E0913F02F09140028081AD
:10079000E0914502F091460282FD12C09081809165
:1007A00048028F5F8F7320914902821751F0E091C8
:1007B0004802F0E0E15DFD4F958F8093480201C053
:1007C0008081FF91EF919F918F912F910F900BBEA0
:1007D0000F900FBE0F901F9018951F920F920FB69B
:1007E0000F9211242F933F938F939F93AF93BF93B7
:1007F00080911B0290911C02A0911D02B0911E02DB
:1008000030911A0223E0230F2D3720F40196A11D09
:10081000B11D05C026E8230F0296A11DB11D20932E
:100820001A0280931B0290931C02A0931D02B093A6
:100830001E0280911F0290912002A0912102B0918E
:1008400022020196A11DB11D80931F0290932002E8
:10085000A0932102B0932202BF91AF919F918F91FB
:100860003F912F910F900FBE0F901F901895CF9230
:10087000DF92EF92FF920F931F93E82FF92F05C09D
:10088000015011092109310961F1908196239417D2
:10089000B9F305C0015011092109310911F1908105
:1008A00096239413F7CFC12CD12CE12CF12C0AC044
:1008B0008FEFC81AD80AE80AF80A0C151D052E058C
:1008C0003F0579F080818623841791F36C2D7D2D6F
:1008D0008E2D9F2D1F910F91FF90EF90DF90CF9065
:1008E000089560E070E080E090E01F910F91FF902C
:1008F000EF90DF90CF900895789484B5826084BDA6
:1009000084B5816084BD85B5826085BD85B5816013
:1009100085BD80916E00816080936E001092810091
:10092000809181008260809381008091810081604C
:10093000809381008091800081608093800080910D
:10094000B10084608093B1008091B0008160809399
:10095000B00080919100826080939100809191001D
:1009600081608093910080919000816080939000DD
:100970008091A10082608093A1008091A10081609C
:100980008093A1008091A00081608093A00080915D
:1009900021018260809321018091210181608093F7
:1009A00021018091200181608093200180917A0053
:1009B000846080937A0080917A00826080937A00CC
:1009C00080917A00816080937A0080917A008068BB
:1009D00080937A001092C100E0913F02F0914002B2
:1009E00082E08083E0913B02F0913C021082E09132
:1009F0003D02F0913E028FEC808310924702E0911D
:100A00004302F091440286E08083E0914102F0913C
:100A10004202808180618083E0914102F091420234
:100A2000808188608083E0914102F0914202808160
:100A300080688083E0914102F091420280818F7D45
:100A40008083E9EEF1E02491E3EAF1E084918823E8
:100A5000C1F090E0880F991FFC01E859FE4FC59145
:100A6000D491FC01E25BFE4FA591B4919FB7F8943D
:100A70008881E22FE0958E2388838C91E823EC9384
:100A80009FBFEAEEF1E02491E4EAF1E0849188234B
:100A900099F090E0880F991FFC01E859FE4FA5914D
:100AA000B491FC01E25BFE4F859194918FB7F8946D
:100AB000EC91E22BEC938FBF2BE4222E312CC3EC74
:100AC000D0E03AE3432E512C612C712C60E088E099
:100AD000FDDCC1010197F1F761E088E0F7DCCE01B0
:100AE0000197F1F760E088E0F1DCE9EEF1E0649174
:100AF000E3EAF1E08491E82FF0E0EE0FFF1FEE57FC
:100B0000FE4F8591949100E412E42FE030E0462FEF
:100B1000AEDE611571058105910551F0DC01CB0157
:100B20000196A11DB11D6C017D01FFE0FF2203C0F4
:100B3000C12CD12C7601C0922B02D0922C02E092D3
:100B40002D02F0922E02C701B60124E930E040E008
:100B500050E0AAD049015A0120932702309328027D
:100B60004093290250932A02C701B601A3019201C2
:100B70009BD020932302309324024093250250936C
:100B80002602C501B40154DD80E192E040DD83E13D
:100B900092E03DDD60912302709124028091250254
:100BA0009091260245DD86E192E031DD83E192E01D
:100BB0002EDD83E192E02BDD83E192E028DD02DD92
:100BC0004B015C0184E6C82ED12CE12CF12CFADC1F
:100BD000DC01CB0188199909AA09BB09883E934019
:100BE000A105B10558F021E0C21AD108E108F108C9
:100BF00088EE880E83E0981EA11CB11CC114D1049C
:100C0000E104F10421F72ADC61CFEFE2F2E0138284
:100C1000128288EE93E0A0E0B0E084839583A683FF
:100C2000B78384E092E09183808385EC90E09587A0
:100C3000848784EC90E09787868780EC90E0918BA6
:100C4000808B81EC90E0938B828B82EC90E0958B93
:100C5000848B86EC90E0978B868B118E128E138E90
:100C6000148E0895A1E21A2EAA1BBB1BFD010DC014
:100C7000AA1FBB1FEE1FFF1FA217B307E407F5074C
:100C800020F0A21BB30BE40BF50B661F771F881F28
:100C9000991F1A9469F760957095809590959B01BE
:100CA000AC01BD01CF010895052E97FB16F4009409
:100CB0000FD057FD05D0D6DF07FC02D046F408C0A0
:100CC00050954095309521953F4F4F4F5F4F089578
:100CD00090958095709561957F4F8F4F9F4F0895A8
:100CE000EE0FFF1F881F8BBF0790F691E02D199420
:0C0CF00081E090E0F89400C0F894FFCF81
:100CFC0000000000C701440191016F0183010D0246
:0A0D0C00696E000D0A00636D00001F
:00000001FF
